:100000003C010400000000000000000000000000AF
:1000100000000000000000000000000000000000E0
:1000200000000000000000000000000000000000D0
:1000300000000000000100000000000000000000BF
:10004000000000001E010000000000000000000091
:1000500000000000000000000000000000000000A0
:100060000000000000000000000000000000000090
:100070000000000000000000000000000000000080
:100080000000000000000000000000000000000070
:100090000000000000000000000000000000000060
:1000A0000000000000000000000000000000000050
:1000B0000000000000000000000000000000000040
:1000C0000000000000000000000000000000000030
:1000D0000000000000000000000000000000000020
:1000E0000000000000000000000000000000000010
:1000F0000000000000000000000000000000000000
:1001000000000000000000000000000000000000EF
:1001100000000000000000000000000000000000DF
:1001200000000000000000000000000000000000CF
:1001300000000000000000000000000000000000BF
:1001400000000000000000000000000000000000AF
:10015000000000000000000000000000000000009F
:10016000000000000000000000000000000000008F
:10017000000000000000000000000000000000007F
:10018000000000000000000000000000000000006F
:10019000000000000000000000000000000000005F
:1001A000000000000000000000000000000000004F
:1001B000000000000000000000000000000000003F
:1001C000000000000000000000000000000000002F
:1001D000000000000000000000000000000000001F
:1001E000000000000000000000000000000000000F
:1001F00000000000000000000000000000000000FF
:100278000F802000F0FF200020A0B7000000200021
:1002880034A0B700400020004420B700C602A900EF
:10029800C622A900CA02A900CA22A9000421EF00A7
:1002A8001221EF000021EF000A21EF000481A800CD
:1002B80004A1A8001061A8001027270002A1B70018
:1002C800301A20000EA1B70000DE29000CA1B700EB
:1002D80084E0A9008460A9008CE0A8008C60A800D4
:1002E80011E1A80005E1A80000000000FEFF3700AA
:0402F800FFFF3700CD
:10023C003400F8003600F800801F78002000200001
:10024C000C000900B01F7800CA22AA0084E0A900A3
:10025C00A00120000C0009004F1078004F0078001E
:0C026C003600F9003400F90000400600E4
:100200003400F8003600F800801F7800200020003D
:100210000C000900B01F7800CA02AA008460A9007F
:10022000A00120000C0009004F1078004F0078005A
:0C0230003600F9003400F9000040060020
:0200000401F009
:1C000000048300003F000000B38700000F3100000F3300000700000003C0000098
:00000001FF
